S0210000456C656374726F6E696320766F74696E67206D616368696E652E737265634F
S11300000C942A000C9447000C9447000C9447006D
S11300100C9447000C9447000C9447000C94470040
S11300200C9447000C9447000C9447000C94470030
S11300300C9447000C9447000C9447000C94470020
S11300400C9447000C9447000C9447000C94470010
S11300500C94470011241FBECFE5D8E0DEBFCDBF0E
S113006010E0A0E6B0E0E8E0FAE002C005900D92EE
S1130070A037B107D9F710E0A0E7B0E001C01D92A6
S1130080A437B107E1F70E94CF020C9402050C9447
S11300900000843409F471C0853448F4823499F141
S11300A0833408F04DC0813409F083C00FC0823618
S11300B051F1833620F4813609F07BC007C08336C2
S11300C009F43EC0843609F074C057C0413069F465
S11300D02AB381E090E0AC0102C0440F551F6A9539
S11300E0E2F7BA01622B6ABB08952AB381E090E07B
S11300F0AC0102C0440F551F6A95E2F7BA0160953E
S113010062236ABB0895413069F427B381E090E02B
S1130110AC0102C0440F551F6A95E2F7BA01622B85
S113012067BB089527B381E090E0AC0102C0440F9F
S1130130551F6A95E2F7BA016095622367BB08957B
S1130140413069F424B381E090E0AC0102C0440F73
S1130150551F6A95E2F7BA01622B64BB089524B374
S113016081E090E0AC0102C0440F551F6A95E2F7AC
S1130170BA016095622364BB0895413069F421B3E8
S113018081E090E0AC0102C0440F551F6A95E2F78C
S1130190BA01622B61BB089521B381E090E0AC0108
S11301A002C0440F551F6A95E2F7BA0160956223B5
S11301B061BB0895843409F471C0853448F48234F1
S11301C099F1833408F04DC0813409F083C00FC025
S11301D0823651F1833620F4813609F07BC007C0A2
S11301E0833609F43EC0843609F074C057C04130E8
S11301F069F42BB381E090E0AC0102C0440F551FB9
S11302006A95E2F7BA01622B6BBB08952BB381E0C8
S113021090E0AC0102C0440F551F6A95E2F7BA01A1
S1130220609562236BBB0895413069F428B381E083
S113023090E0AC0102C0440F551F6A95E2F7BA0181
S1130240622B68BB089528B381E090E0AC0102C042
S1130250440F551F6A95E2F7BA016095622368BBA3
S11302600895413069F425B381E090E0AC0102C007
S1130270440F551F6A95E2F7BA01622B65BB0895D6
S113028025B381E090E0AC0102C0440F551F6A958C
S1130290E2F7BA016095622365BB0895413069F4C1
S11302A022B381E090E0AC0102C0440F551F6A956F
S11302B0E2F7BA01622B62BB089522B381E090E0B9
S11302C0AC0102C0440F551F6A95E2F7BA0160956C
S11302D0622362BB0895843409F44EC0853440F42B
S11302E0823431F18334B0F5813409F057C00EC043
S11302F08236F1F0833620F4813609F04FC006C00F
S1130300833641F1843609F049C036C029B381E00F
S113031090E0062E02C0880F991F0A94E2F730E09D
S11303208223932302C0969587956A95E2F70895F0
S113033026B381E090E0062E02C0880F991F0A942C
S1130340E2F730E08223932302C0969587956A955D
S1130350E2F7089523B381E090E0062E02C0880FEF
S1130360991F0A94E2F730E08223932302C0969502
S113037087956A95E2F7089520B381E090E0062E10
S113038002C0880F991F0A94E2F730E08223932376
S113039002C0969587956A95E2F7089580E00895DE
S11303A0843409F43DC0853440F48234F9F0833454
S11303B050F5813409F040C00CC08236B9F0833660
S11303C018F48136C9F505C08336E9F08436A1F501
S11303D027C02BB381E090E0AC0102C0440F551F4D
S11303E06A95E2F7BA0162276BBB089528B381E0EE
S11303F090E0AC0102C0440F551F6A95E2F7BA01C0
S1130400622768BB089525B381E090E0AC0102C087
S1130410440F551F6A95E2F7BA01622765BB089538
S113042022B381E090E0AC0102C0440F551F6A95ED
S1130430E2F7BA01622762BB08958434D9F08534A7
S113044038F4823499F0833498F48134A1F40CC0E4
S1130450823661F0833618F4813669F405C0833638
S113046039F0843641F406C06ABB089567BB089529
S113047064BB089561BB08958434D9F0853438F49D
S1130480823499F0833498F48134A1F40CC0823618
S113049061F0833618F4813669F405C0833639F087
S11304A0843641F406C06BBB089568BB089565BBF0
S11304B0089562BB08958434D9F0853438F48234C5
S11304C099F0833498F48134A9F40CC0823661F035
S11304D0833618F4813671F405C0833639F08436D6
S11304E049F406C089B3089586B3089583B3089583
S11304F080B3089580E008956F70823489F0833466
S113050018F4813409F505C0833489F08434E1F4A6
S113051015C08BB3807F8BBB8BB3682B6BBB0895EB
S113052088B3807F88BB88B3682B68BB089585B384
S1130530807F85BB85B3682B65BB089582B3807FBC
S113054082BB82B3682B62BB08956295607F82345C
S113055089F0833418F4813409F505C0833489F0B3
S11305608434E1F415C08BB38F708BBB8BB3682BD1
S11305706BBB089588B38F7088BB88B3682B68BB46
S1130580089585B38F7085BB85B3682B65BB0895CB
S113059082B38F7082BB82B3682B62BB08950E94C2
S11305A03E0484E460E00E94EA0484E461E00E9482
S11305B0EA0484E462E00E94EA0484E463E00E94C2
S11305C0EA0484E464E00E94EA048CE00E943204B9
S11305D080E690E00E94B40481E06DE00E94CD04C6
S11305E084E690E00E94B40482E061E00E94CD04BD
S11305F088E690E00E94B40482E06DE00E94CD049D
S11306008CE690E00E94B40400E610E00F2EF4E6BD
S1130610EF2EF0E0FF2EF02D0F2EF8E6CF2EF0E0B7
S1130620DF2EF02D0F2EFCE6AF2EF0E0BF2EF02DC6
S1130630CAE084E460E00E94F104813069F58091AD
S11306407300893068F48F5F8093730081E063E006
S11306500E94CD0480917300805D0E94A804E1C0D3
S1130660843608F0DEC08F5F8093730081E063E01E
S11306700E94CD04809173006C2F0E94F604805D6B
S11306800E94A804809173006C2F0E94F604892FA5
S1130690805D0E94A804C5C084E461E00E94F10466
S11306A0813069F580917200893068F48F5F80939E
S11306B0720081E06FE00E94CD0480917200805D41
S11306C00E94A804AEC0843608F0ABC08F5F80934C
S11306D0720081E06FE00E94CD04809172006C2F63
S11306E00E94F604805D0E94A804809172006C2F21
S11306F00E94F604892F805D0E94A80492C084E4BD
S113070062E00E94F104813069F5809171008930C2
S113071068F48F5F8093710082E063E00E94CD04EF
S113072080917100805D0E94A8047BC0843608F02B
S113073078C08F5F8093710082E063E00E94CD04F3
S1130740809171006C2F0E94F604805D0E94A804C1
S1130750809171006C2F0E94F604892F805D0E94A5
S1130760A8045FC084E463E00E94F104813069F569
S113077080917000893068F48F5F8093700082E00C
S11307806FE00E94CD0480917000805D0E94A804F7
S113079048C0843608F045C08F5F8093700082E0C3
S11307A06FE00E94CD04809170006C2F0E94F604CB
S11307B0805D0E94A804809170006C2F0E94F60452
S11307C0892F805D0E94A8042CC084E464E00E9408
S11307D0F104813031F50E943204109270001092BD
S11307E07100109272001092730081E061E00E9427
S11307F0CD04C8010E94B40481E06DE00E94CD04E0
S1130800C7010E94B40482E061E00E94CD04C601E5
S11308100E94B40482E06DE00E94CD04C5010E94F0
S1130820B4048FEF91EEA4E081509040A040E1F732
S113083000C00000FECE82E460E041E00E94DA00E5
S11308408FE99FE00197F1F700C0000082E460E0C7
S113085040E00E94DA008FE99FE00197F1F700C0C1
S113086000000895682F81E40E943C0282E461E064
S113087040E00E94DA000E941B0408958FEF91EE7D
S1130880A4E081509040A040E1F700C0000081E462
S113089060E041E00E94490081E461E041E00E949F
S11308A0490081E462E041E00E94490081E463E0A0
S11308B041E00E94490081E464E041E00E94490073
S11308C081E465E041E00E94490081E466E041E0A2
S11308D00E94490081E467E041E00E94490082E40B
S11308E060E041E00E94490082E461E041E00E944E
S11308F0490082E462E041E00E94490082E462E04F
S113090040E00E94DA0088E30E943204AFECB7E0D2
S11309101197F1F700C000008EE00E9432048FECC2
S113092097E00197F1F700C0000081E00E943204D3
S1130930AFE1BEE41197F1F700C0000086E00E9429
S113094032048FEC97E00197F1F700C0000008959E
S1130950682F81E40E943C0282E461E041E00E944D
S1130960DA000E941B040895CF93DF93EC01888181
S1130970882331F021960E94A80489918823D9F70D
S1130980DF91CF91089581E00E9432048FE19EE4CB
S11309900197F1F700C000000895282F215022305C
S11309A060F4662361F0813019F4962F915808C0E1
S11309B0823031F4962F915403C090E801C090E83E
S11309C0892F0E9432048FEC97E00197F1F700C061
S11309D00000089590E070E040E050E00E9449007B
S11309E0089590E070E00E946B010895991B79E0EE
S11309F004C0991F961708F0961B881F7A95C9F7AB
S10B0A0080950895F894FFCFDE
S1130A08413D3000423D3000433D3000443D30001C
S9030000FC
